:020000040800F2
:1000000000000220B57E0008291200082B1200080B
:100010002D1200082F120008311200080000000005
:10002000000000000000000000000000615F000808
:100030003312000800000000016000081F5800088B
:10004000057F0008057F0008057F0008057F000880
:10005000057F0008057F000835120008057F0008AD
:10006000057F0008057F0008057F0008057F000860
:10007000057F0008057F0008057F0008057F000850
:10008000057F0008057F000841120008057F000871
:10009000057F0008057F0008057F0008057F000830
:1000A000057F0008057F0008057F0008057F000820
:1000B000057F0008057F0008057F0008057F000810
:1000C000057F0008057F0008057F0008057F000800
:1000D000057F0008057F0008057F0008057F0008F0
:1000E000057F0008057F0008057F0008057F0008E0
:1000F000057F0008057F0008057F0008057F0008D0
:10010000057F0008057F0008057F0008057F0008BF
:10011000057F0008057F00085912000869120008D1
:1001200079120008057F0008057F0008057F000898
:10013000057F00080000000000000000057F0008A7
:10014000057F0008057F0008057F0008057F00087F
:10015000057F0008057F0008057F0008057F00086F
:10016000057F0008057F0008057F0008057F00085F
:10017000057F0008057F0008000000000000000067
:08018000057F0008057F00085F
:1001900010B5054C237833B9044B13B10448AFF3C1
:1001A00000800123237010BDAC000020000000007F
:1001B000D48B000808B5034B1BB103490348AFF3C8
:1001C000008008BD00000000B0000020D48B0008B3
:1001D00001F0FF01102A2BDB10F0070F08D010F8F8
:1001E000013B013A8B422DD010F0070F42B3F6D1FC
:1001F000F0B441EA012141EA014122F007047FF015
:1002000000070023F0E80256083C85EA010586EA6B
:10021000010685FA47F5A3FA87F586FA47F6A5FAA7
:1002200087F68EB9EED1F0BC01F0FF0102F00702B3
:1002300032B110F8013B013A83EA010313B1F8D15E
:100240000020704701387047002D06BF354603383F
:10025000073815F0010F07D1013015F4807F02BF78
:10026000013015F4C03F0130F0BC0138704700BFC9
:1002700081F0004102E000BF83F0004330B54FEA57
:1002800041044FEA430594EA050F08BF90EA020FC4
:100290001FBF54EA000C55EA020C7FEA645C7FEA57
:1002A000655C00F0E2804FEA5454D4EB5555B8BF7A
:1002B0006D420CDD2C4480EA020281EA030382EAEB
:1002C000000083EA010180EA020281EA0303362D7D
:1002D00088BF30BD11F0004F4FEA01314FF4801C50
:1002E0004CEA113102D0404261EB410113F0004F62
:1002F0004FEA03334CEA133302D0524263EB430319
:1003000094EA050F00F0A780A4F10104D5F1200EB6
:100310000DDB02FA0EFC22FA05F2801841F1000111
:1003200003FA0EF2801843FA05F359410EE0A5F1E5
:1003300020050EF1200E012A03FA0EFC28BF4CF016
:10034000020C43FA05F3C01851EBE37101F00045CC
:1003500007D54FF0000EDCF1000C7EEB00006EEBD9
:100360000101B1F5801F1BD3B1F5001F0CD3490863
:100370005FEA30004FEA3C0C04F101044FEA4452BA
:1003800012F5800F80F09A80BCF1004F08BF5FEA41
:10039000500C50F1000041EB045141EA050130BD21
:1003A0005FEA4C0C404141EB0101013C28BFB1F533
:1003B000801FE9D291F0000F04BF01460020B1FA7E
:1003C00081F308BF2033A3F10B03B3F120020CDA51
:1003D0000C3208DD02F1140CC2F10C0201FA0CF02F
:1003E00021FA02F10CE002F11402D8BFC2F1200C94
:1003F00001FA02F120FA0CFCDCBF41EA0C0190404A
:10040000E41AA2BF01EB0451294330BD6FEA040492
:100410001F3C1CDA0C340EDC04F11404C4F120027D
:1004200020FA04F001FA02F340EA030021FA04F38F
:1004300045EA030130BDC4F10C04C4F1200220FAE6
:1004400002F001FA04F340EA0300294630BD21FA24
:1004500004F0294630BD94F0000F83F4801306BFEA
:1004600081F480110134013D4EE77FEA645C18BFDE
:100470007FEA655C29D094EA050F08BF90EA020F75
:1004800005D054EA000C04BF1946104630BD91EA6D
:10049000030F1EBF0021002030BD5FEA545C05D170
:1004A0004000494128BF41F0004130BD14F58004AF
:1004B0003CBF01F5801130BD01F0004545F0FE4123
:1004C00041F470014FF0000030BD7FEA645C1ABF58
:1004D000194610467FEA655C1CBF0B46024650EA8F
:1004E000013406BF52EA033591EA030F41F40021BB
:1004F00030BD00BF90F0000F04BF0021704730B541
:100500004FF4806404F132044FF000054FF0000115
:1005100050E700BF90F0000F04BF0021704730B5D6
:100520004FF4806404F1320410F0004548BF4042AB
:100530004FF000013EE700BF42004FEAE2014FEA00
:1005400031014FEA02701FBF12F07F4393F07F4FDB
:1005500081F06051704732F07F4208BF704793F0DE
:100560007F4F04BF41F40021704730B54FF46074F1
:1005700001F0004521F000411CE700BF50EA0102F4
:1005800008BF704730B54FF000050AE050EA01029D
:1005900008BF704730B511F0004502D5404261EB0D
:1005A00041014FF4806404F132045FEA915C3FF44E
:1005B000D8AE4FF003025FEADC0C18BF03325FEAEB
:1005C000DC0C18BF033202EBDC02C2F1200300FA9C
:1005D00003FC20FA02F001FA03FE40EA0E0021FAC1
:1005E00002F11444BDE600BF53B94AB9002908BF5F
:1005F00000281CBF4FF0FF314FF0FF3000F074B9FE
:10060000ADF1080C6DE904CE00F006F8DDF804E069
:10061000DDE9022304B070472DE9F047089D044648
:100620008E46002B4DD18A42944669D9B2FA82F2A5
:1006300052B101FA02F3C2F1200120FA01F10CFAE1
:1006400002FC41EA030E94404FEA1C48210CBEFB19
:10065000F8F61FFA8CF708FB16E341EA034306FBA2
:1006600007F199420AD91CEB030306F1FF3080F031
:100670001F81994240F21C81023E63445B1AA4B27E
:10068000B3FBF8F008FB103344EA034400FB07F720
:10069000A7420AD91CEB040400F1FF3380F00A8161
:1006A000A74240F207816444023840EA0640E41B56
:1006B00000261DB1D4400023C5E900433146BDE802
:1006C000F0878B4209D9002D00F0EF800026C5E9A4
:1006D000000130463146BDE8F087B3FA83F6002EBC
:1006E0004AD18B4202D3824200F2F980841A61EB34
:1006F000030301209E46002DE0D0C5E9004EDDE752
:1007000002B9FFDEB2FA82F2002A40F09280A1EB39
:100710000C014FEA1C471FFA8CFE0126200CB1FB8E
:10072000F7F307FB131140EA01410EFB03F0884287
:1007300008D91CEB010103F1FF3802D2884200F214
:10074000CB804346091AA4B2B1FBF7F007FB1011A6
:1007500044EA01440EFB00FEA64508D91CEB040444
:1007600000F1FF3102D2A64500F2BB800846A4EB9F
:100770000E0440EA03409CE7C6F12007B34022FA8A
:1007800007FC4CEA030C20FA07F401FA06F31C43B9
:10079000F9404FEA1C4900FA06F3B1FBF9F8200CC6
:1007A0001FFA8CFE09FB181140EA014108FB0EF00C
:1007B000884202FA06F20BD91CEB010108F1FF3A5C
:1007C00080F08880884240F28580A8F10208614468
:1007D000091AA4B2B1FBF9F009FB101144EA014176
:1007E00000FB0EFE8E4508D91CEB010100F1FF3421
:1007F0006CD28E456AD90238614440EA0840A0FBB9
:100800000294A1EB0E01A142C846A64656D353D08E
:100810005DB1B3EB080261EB0E0101FA07F722FAB2
:1008200006F3F1401F43C5E9007100263146BDE8DB
:10083000F087C2F12003D8400CFA02FC21FA03F33E
:10084000914001434FEA1C471FFA8CFEB3FBF7F0BF
:1008500007FB10360B0C43EA064300FB0EF69E42E4
:1008600004FA02F408D91CEB030300F1FF382FD27D
:100870009E422DD9023863449B1B89B2B3FBF7F625
:1008800007FB163341EA034106FB0EF38B4208D9FE
:100890001CEB010106F1FF3816D28B4214D9023E3F
:1008A0006144C91A46EA004638E72E46284605E75D
:1008B0000646E3E61846F8E64B45A9D2B9EB02082E
:1008C00064EB0C0E0138A3E74646EAE7204694E7BE
:1008D0004046D1E7D0467BE7023B614432E73046F1
:1008E00009E76444023842E7704700BF08B5026870
:1008F000034B9A4200D008BD02F072FEFBE700BF36
:100900000014004072B6FEE700B595B03022002119
:1009100008A807F031FB0023039304930593069383
:1009200007930193204A116C41F080511164126CBD
:1009300002F080520192019A02931C4B1A6842F411
:1009400080421A601B6803F480430293029B0123D8
:1009500008934FF48033099302230E934FF48002DF
:100960000F9206221092A82211921293042313933D
:1009700008A801F053FE98B90F23039302230493B0
:10098000002305934FF4A05306934FF4805307932D
:10099000052103A802F090F820B915B05DF804FB1A
:1009A000FFF7B0FFFFF7AEFF0038024000700040D5
:1009B00008B502F0FBFDFFF7A7FF00F017F800F005
:1009C0003DFA00F015F900F031FB00F0A7FA00F055
:1009D0004FFA00F091FB00F0A9FB00F041F904F0A0
:1009E0002BFF00F0C7F804F039FFFEE72DE9F043D4
:1009F0008BB00024059406940794089409940094FD
:100A00004E4B1A6B42F004021A631A6B02F0040296
:100A10000092009A01941A6B42F080021A631A6BDA
:100A200002F080020192019A02941A6B42F00102D4
:100A30001A631A6B02F001020292029A03941A6B73
:100A400042F002021A631A6B02F002020392039A46
:100A500004941A6B42F008021A631B6B03F008033C
:100A60000493049B364E224641F62271304602F032
:100A7000AAFADFF8D490224649F6F311484602F06C
:100A8000A2FADFF8C88022464FF23F01404602F04A
:100A90009AFA2C4F22460421384602F094FA42F288
:100AA000DC03059306940125079505A9304602F05D
:100AB000F7F805954FF488130693079405A9304677
:100AC00002F0EEF80223059306950794089405A911
:100AD000304602F0E5F849F6F313059306950794BE
:100AE000089505A9484602F0DBF84FF4F953059341
:100AF00006950794089505A9304602F0D1F84FF203
:100B00003F03059306950794089505A9404602F012
:100B1000C7F80423059306950794089405A9384659
:100B200002F0BEF822460521062002F0F9FC06205C
:100B300002F02EFD0BB0BDE8F08300BF003802408C
:100B400000080240000C0240000002400004024085
:100B500008B506F041FA06F0E3FAFCE708B507F03D
:100B600053F807F099F8FCE708B507F079F907F0B2
:100B700089F9FCE708B5114804F0F8FE104B18603D
:100B8000104A0121102004F08DFF0F4B18600F4A0E
:100B900000210F4804F07EFE0E4B18600E4A002123
:100BA0000E4804F077FE0E4B18600E4A00210E48E6
:100BB00004F070FE0D4B186008BD00BF348C0008B7
:100BC000C8000020448C0008CC000020A48C000841
:100BD000510B0008D80000205C8C00085D0B000859
:100BE000D0000020808C0008690B0008D400002091
:100BF00000B585B000230093019302930393154839
:100C0000154A02604FF480324260836003610376CC
:100C100080F82030C362114A8262C3600122C2613F
:100C200080F83030426101F0D3F868B903230093B3
:100C300001230193072302936946064801F020FC33
:100C400028B905B05DF804FBFFF75CFEEEE7FFF79F
:100C500059FEF6E7DC000020002001400100000FF3
:100C600000B585B0002300930193029303931548C8
:100C7000154A02604FF4803242608360036103765C
:100C800080F82030C362114A8262C3600122C261CF
:100C900080F83030426101F09BF868B9022300937C
:100CA00001230193002302936946064801F0E8FB03
:100CB00028B905B05DF804FBFFF724FEEEE7FFF767
:100CC00021FEF6E724010020002101400100000F71
:100CD00030B58BB0002305930693079308930993CF
:100CE00003683B4A934204D03A4A934248D00BB03F
:100CF00030BD044600250195374B5A6C42F4807292
:100D00005A645A6C02F480720192019A02951A6B2D
:100D100042F001021A631B6B03F001030293029B72
:100D20000C2305930323069305A92C4801F0B8FF73
:100D30002B482C4B036045608560C5604FF4806391
:100D400003614FF4006343614FF4005383614FF438
:100D50008073C3614FF400330362456202F0C8F947
:100D600058B91F4BA3639C6300220521122002F097
:100D7000D7FB122002F00CFCB9E7FFF7C3FDF0E748
:100D800000240394144B5A6C42F400725A645A6C57
:100D900002F400720392039A04941A6B42F0010267
:100DA0001A631B6B03F001030493049B0423059354
:100DB0000323069305A9094801F072FF2246052185
:100DC000122002F0ADFB122002F0E2FB8FE700BF21
:100DD0000020014000210140003802400000024094
:100DE0006C0100201064024010B503680F4A934262
:100DF00003D00F4A93420FD010BD044602F58C3247
:100E0000536C23F4807353640C210A4802F03AF8BF
:100E1000A06B02F0D3F9EFE7074A536C23F4007399
:100E200053640421034802F02DF8E5E70020014057
:100E300000210140000002400038024000B583B0AC
:100E400000220192094B196B41F4800119631B6B5D
:100E500003F480030193019B0521382002F060FB1D
:100E6000382002F095FB03B05DF804FB0038024027
:100E700008B50B480B4B03600B4B436000238360AA
:100E8000C3604FF48042026143618361C3610362C6
:100E900002F04AFD00B908BDFFF734FDFBE700BFD3
:100EA000CC01002000540040A086010030B589B07C
:100EB0000023039304930593069307930268144B4E
:100EC0009A4201D009B030BD00250195114C236B29
:100ED00043F002032363236B03F002030193019B9E
:100EE000C02303931223049303230693042307933D
:100EF00003A9094801F0D4FE0295236C43F40013C2
:100F00002364236C03F400130293029BDAE700BF0F
:100F100000540040003802400004024000B583B095
:100F20000023009301930F480F4A0260A7224260FA
:100F3000836040F2E732C260836100F045FC50B943
:100F40000023009301936946064800F05FFE28B92C
:100F500003B05DF804FBFFF7D5FCF1E7FFF7D2FC27
:100F6000F6E700BF680200200010004000B583B023
:100F70000368154A934205D0144A93420FD003B038
:100F80005DF804FB00230093114B1A6C42F004023D
:100F90001A641B6C03F004030093009BEFE700222C
:100FA00001920B4B196C41F0100119641B6C03F09A
:100FB00010030193019B0521362002F0B1FA36207F
:100FC00002F0E6FADBE700BF000800400010004036
:100FD0000038024000B587B00023019302930393C9
:100FE0000493059302680E4B9A4202D007B05DF855
:100FF00004FB002300930B4B1A6B42F002021A63AE
:101000001B6B03F002030093009B4FF440730193AA
:1010100002230293059301A9034801F041FEE5E78D
:1010200000080040003802400004024000B58FB0C4
:1010300000230A930B930C930D9308930993019348
:101040000293039304930593069307932848294A30
:10105000026063224260836040F24732C2600361F3
:10106000836100F0B1FB00282FD14FF480530A9325
:101070000AA91F4800F074FC50BB1D4800F0D0FBCB
:1010800048BB00230893099308A9194800F0BEFD46
:1010900020BB302301930023029302220392059385
:1010A000082201A9124800F01FFCD0B94FF4D273F6
:1010B00002930C2201A90E4800F016FCA0B90C48BE
:1010C000FFF788FF0FB05DF804FBFFF71BFCCCE7D0
:1010D000FFF718FCD1E7FFF715FCD2E7FFF712FC8A
:1010E000D7E7FFF70FFCE1E7FFF70CFCE7E700BFEE
:1010F000200200200008004008B50A480A4B03609F
:101100004FF4E133436000238360C36003610C222A
:1011100042618361C36102F029FE00B908BDFFF797
:10112000F1FBFBE7B00200200010014008B50A48BF
:101130000A4B03604FF4E133436000238360C360D4
:1011400003610C2242618361C36102F00FFE00B9AA
:1011500008BDFFF7D7FBFBE7F8020020004800407E
:1011600000B58BB00023059306930793089309936A
:101170000368284A934205D0274A934226D00BB0F1
:101180005DF804FB00210191244B5A6C42F01002DF
:101190005A645A6C02F010020192019A02911A6B81
:1011A00042F001021A631B6B03F001030293029BDE
:1011B0004FF4C06305930223069303230893072388
:1011C000099305A9164801F06BFDD8E700210391AA
:1011D000124B1A6C42F480221A641A6C02F48022B8
:1011E0000392039A04911A6B42F002021A631B6B7A
:1011F00003F002030493049B4FF44063059302231E
:101200000693032308930723099305A9054801F0D2
:1012100047FDB4E70010014000480040003802409C
:101220000000024000040240FEE7FEE7FEE7FEE7A2
:10123000FEE7704708B5012001F0CCFE08BD0000B4
:1012400008B5034801F036F8024801F033F808BD4C
:10125000DC0000202401002008B5024800F09DF9C0
:1012600008BD00BF6802002008B5024800F095F9EB
:1012700008BD00BF4003002008B5024802F050F846
:1012800008BD00BF6C010020012800D0704708B5E0
:1012900005F0D2FB08BD000000B583B0002200922B
:1012A0000D4B596C41F480415964596C01F48041F3
:1012B000009100990192196C41F0805119641B6CE6
:1012C00003F080530193019B0F216FF0010002F0A6
:1012D00027F903B05DF804FB0038024030B589B04F
:1012E000044600230193214B1A6C42F020021A6439
:1012F0001B6C03F020030193019B02A903A801F0DA
:10130000B1FC069BCBB901F08DFC03461848A0FB4D
:1013100003239B0C013B1748174A026040F2E73257
:10132000C2604360002303618360836100F04CFA74
:10133000054630B1284609B030BD01F073FC4300CA
:10134000E4E70C4800F0E0F805460028F2D1372029
:1013500002F01EF90F2C01D90125EBE700222146EE
:10136000372002F0DDF8054B1C60E3E7003802404F
:1013700083DE1B43400300200014004004000020D3
:1013800030B4036A026A22F0010202624268846990
:1013900024F073040D682C4323F0020C8B6843EA9D
:1013A0000C03104DA84203D005F58065A84205D175
:1013B00023F00803CD682B4323F00403094DA84212
:1013C00003D005F58065A84205D122F440724D692D
:1013D0002A438D692A43426084614A6842630362FA
:1013E00030BC70470000014030B4036A026A22F446
:1013F000807202624268C46924F0730C0C6844EA8B
:101400000C0523F400738C6843EA0423114CA042BA
:1014100003D004F58064A04206D123F40063CC68B5
:1014200043EA042323F480630A4CA04203D004F56A
:101430008064A04207D122F440524C6942EA04126F
:101440008C6942EA04124260C5614A68C263036261
:1014500030BC70470000014030B4036A026A22F4D5
:10146000805202624468C26922F4E6420D6842EA90
:10147000052223F400538D6843EA0533094DA84241
:1014800003D005F58065A84204D124F480444D6959
:1014900044EA85144460C2614A680264036230BC55
:1014A000704700BF0000014010B4036A046A24F0D2
:1014B00001040462846924F0F00C4CEA021223F067
:1014C0000A030B43826103625DF8044B704710B45A
:1014D000036A046A24F010040462846924F4704CE2
:1014E0004CEA023223F0A00343EA01138261036253
:1014F0005DF8044B7047836823F070030B4343F09F
:10150000070383607047000090F83D30DBB2012B89
:1015100037D1022380F83D300268D36843F00103DD
:10152000D3600368194A934220D0B3F1804F1DD095
:10153000A2F57C42934219D002F58062934215D005
:1015400002F58062934211D002F5784293420DD0A9
:1015500002F57052934209D0A2F59432934205D01D
:101560001A6842F001021A60002070479A6802F07F
:101570000702062A07D01A6842F001021A6000200A
:101580007047012070470020704700BF00000140F5
:101590007047704770477047704770B504460368DE
:1015A000DE681D6915F0020F10D016F0020F0DD085
:1015B0006FF002021A610123037703689B6913F03D
:1015C000030F5ED0FFF7E6FF0023237715F0040F2B
:1015D00012D016F0040F0FD023686FF004021A61C6
:1015E0000223237723689B6913F4407F4FD0204662
:1015F000FFF7D0FF0023237715F0080F12D016F065
:10160000080F0FD023686FF008021A6104232377B4
:101610002368DB6913F0030F40D02046FFF7BAFFC1
:101620000023237715F0100F12D016F0100F0FD0F3
:1016300023686FF010021A61082323772368DB699F
:1016400013F4407F31D02046FFF7A4FF0023237717
:1016500015F0010F02D016F0010F2DD115F0800FFB
:1016600002D016F0800F2FD115F0400F02D016F0E7
:10167000400F31D115F0200F02D016F0200F33D1DA
:1016800070BDFFF786FF2046FFF785FF9CE72046E9
:10169000FFF77FFF2046FFF77EFFABE72046FFF70F
:1016A00078FF2046FFF777FFBAE72046FFF771FF84
:1016B0002046FFF770FFC9E723686FF001021A6147
:1016C0002046FFF713F9C9E723686FF080021A611B
:1016D000204600F0E2FAC7E723686FF040021A6183
:1016E0002046FFF759FFC5E723686FF020021A6113
:1016F000204600F0D1FAC3E70368324A904212D084
:10170000B0F1804F0FD0A2F57C4290420BD002F591
:101710008062904207D002F58062904203D002F5C9
:101720007842904203D123F070034A681343254A5C
:1017300090422AD0B0F1804F27D0A2F57C4290424F
:1017400023D002F5806290421FD002F58062904261
:101750001BD002F57842904217D002F570529042A9
:1017600013D002F5806290420FD002F58062904261
:101770000BD0A2F59832904207D002F580629042D9
:1017800003D002F58062904203D123F44073CA680B
:10179000134323F080034A6913438A68C2620A68CC
:1017A0008262084A904203D002F58062904201D1E1
:1017B0000A690263026842F0040202600122426187
:1017C000036070470000014040B310B5044690F834
:1017D0003D30F3B1022384F83D30214651F8040B2B
:1017E000FFF78AFF012384F8463084F83E3084F8FE
:1017F0003F3084F8403084F8413084F8423084F837
:10180000433084F8443084F8453084F83D3000207B
:1018100010BD80F83C30FFF7A9FBDBE701207047E3
:1018200040B310B5044690F83D30F3B1022384F87C
:101830003D30214651F8040BFFF75EFF012384F889
:10184000463084F83E3084F83F3084F8403084F8E5
:10185000413084F8423084F8433084F8443084F8CE
:10186000453084F83D30002010BD80F83C30FFF753
:101870008FFEDBE70120704730B4036A026A22F072
:10188000100202624468826922F4E6420D6842EA6C
:10189000052223F020038D6843EA0513114DA84269
:1018A00003D005F58065A84206D123F08003CD68FA
:1018B00043EA051323F040030A4DA84203D005F57F
:1018C0008065A84207D124F440644D6944EA850448
:1018D0008D6944EA8504446082614A6882630362D8
:1018E00030BC70470000014090F83C30012B28D0FC
:1018F00010B50446012380F83C300C2A1CD8DFE8E0
:1019000002F0071B1B1B0C1B1B1B111B1B1B1600B8
:101910000068FFF735FD00200FE00068FFF7ACFF1F
:1019200000200AE00068FFF75FFD002005E0006886
:10193000FFF792FD002000E00120002384F83C30F6
:1019400010BD0220704710B4846824F47F4C42EA32
:1019500003220A4342EA0C0282605DF8044B70479E
:1019600090F83C30012B78D010B50446012380F864
:101970003C30022380F83D300268936823F47F43B3
:1019800023F0770393600B68602B4CD029D8402B51
:1019900054D00CD9502B22D1CA6849680068FFF78F
:1019A00083FD50212068FFF7A6FD002005E0202BD5
:1019B0000DD009D9302B0AD00120012384F83D3005
:1019C000002384F83C3010BD0BB1102B05D1194613
:1019D0002068FFF790FD0020EFE70120EDE70120F0
:1019E000EBE7B3F5805F34D0B3F5005F0CD1CB6883
:1019F0004A6889680068FFF7A6FF2268936843F485
:101A0000804393600020D8E7702B24D1CB684A68CC
:101A100089680068FFF797FF2268936843F07703AF
:101A200093600020C9E7CA6849680068FFF74FFD66
:101A300060212068FFF75FFD0020BEE7CA684968A3
:101A40000068FFF731FD40212068FFF754FD0020BA
:101A5000B3E70020B1E70120AFE70220704701F0B3
:101A60001F01012303FA01FC036A23EA0C0303624A
:101A7000036A02FA01F10B430362704710B5044692
:101A80000846002942D194F83E30DBB2013B18BF32
:101A90000123002B6ED1002851D1022384F83E305F
:101AA000012201462068FFF7DAFF2368334A934298
:101AB00003D002F58062934203D15A6C42F4004293
:101AC0005A6423682D4A934249D0B3F1804F46D0DF
:101AD000A2F57C42934242D002F5806293423ED00E
:101AE00002F5806293423AD002F57842934236D0B2
:101AF00002F57052934232D0A2F5943293422ED026
:101B00001A6842F001021A60002032E0042908D06D
:101B100008290DD094F84130DBB2013B18BF0123F6
:101B2000B7E794F83F30DBB2013B18BF0123B0E7C1
:101B300094F84030DBB2013B18BF0123A9E7042829
:101B400005D0082807D0022384F84130A8E70223F3
:101B500084F83F30A4E7022384F84030A0E79A6875
:101B600002F00702062A07D01A6842F001021A6042
:101B7000002010BD0120FCE70020FAE70000014032
:101B800038B504460D4600220068FFF768FF236859
:101B90001D4A934218D002F58062934214D0236804
:101BA000196A41F21112114208D1196A40F24442F5
:101BB000114203D11A6822F001021A609DB9012373
:101BC00084F83E30002038BD196A41F211121142EA
:101BD000E5D1196A40F244421142E0D15A6C22F434
:101BE00000425A64DBE7042D05D0082D07D00123FD
:101BF00084F84130E6E7012384F83F30E2E701232F
:101C000084F84030DEE700BF0000014090F83C302F
:101C1000012B3DD010B4012380F83C30022380F822
:101C20003D3003685A689C6822F0700C0A6842EAEA
:101C30000C025A600368174A93421AD0B3F1804FDE
:101C400017D0A2F57C42934213D002F580629342F2
:101C50000FD002F5806293420BD002F57842934296
:101C600007D002F57052934203D0A2F5943293420A
:101C700004D124F080044A6814439C60012380F856
:101C80003D30002380F83C3018465DF8044B704727
:101C90000220704700000140704770474A4B5A6865
:101CA00022F440325A605A6841680A435A60026816
:101CB000536823F48073536002685368016943EAF0
:101CC000012353600268536823F040735360026835
:101CD000536881680B4353600268936823F4006380
:101CE000936002689368C1680B439360826A374BC4
:101CF0009A4257D00268936823F070639360026839
:101D00009368816A0B4393600268936823F04053A1
:101D1000936002689368C16A0B439360026893689A
:101D200023F00203936002689368017E43EA410353
:101D3000936090F82030002B3FD00268536843F442
:101D4000006353600268536823F460435360016882
:101D50004B68426A013A43EA42334B600268D36AF5
:101D600023F47003D3620168CB6AC269013A43EA83
:101D70000253CB620268936823F400739360026895
:101D8000936890F8301043EA4123936002689368A7
:101D900023F48063936002689368416943EA812376
:101DA000936070470268936823F0706393600268E1
:101DB000936823F040539360B0E70268536823F4BC
:101DC00000635360CAE700BF002301400100000F19
:101DD00038B310B50446036C43B1236C13F0100FF5
:101DE0000BD00120002384F83C3010BDFEF770FFBB
:101DF0000023636484F83C30EFE7236C23F48853BA
:101E000023F0020343F0020323642046FFF746FF5A
:101E100000206064236C23F0030343F00103236478
:101E2000E0E701207047C8B110B50446036C43F0E9
:101E3000020303640268936823F00103936003685C
:101E40009B6813F0010F03D0002084F83C0010BD04
:101E5000FEF7CAFF002363642364F5E7012070479F
:101E600082B00023019390F83C30012B00F0898070
:101E7000012380F83C3003689A6812F0010F13D1F7
:101E80009A6842F001029A60414B1B68414AA2FBEA
:101E900003239B0C03EB4303019302E0019B013BF3
:101EA0000193019B002BF9D10268936813F0010F95
:101EB0005CD0036C23F4E06323F0010343F48073EC
:101EC0000364536813F4806F05D0036C23F440530C
:101ED00043F480530364036C13F4805F1BD0436CA2
:101EE00023F006034364002380F83C306FF02203A4
:101EF0001360294B5B6813F01F0F27D10368274A33
:101F0000934211D002F58072934207D0244A934243
:101F100014D0002033E000234364E4E702F50072AC
:101F2000526812F01F0FF1D19A6812F0405F2AD167
:101F30009A6842F080429A60002020E002F58072A8
:101F4000526812F0100FEFD0002018E00368134A17
:101F5000934201D0002012E09A6812F0405F14D141
:101F60009A6842F080429A60002008E0036C43F0D7
:101F700010030364436C43F001034364002002B088
:101F800070470220FBE70020F9E70020F7E700BFD9
:101F90000800002083DE1B43002301400020014095
:101FA0000022014090F83C30012B19D0012380F829
:101FB0003C300268936823F00103936003689B68D8
:101FC00013F0010F07D1036C23F4885323F00103AE
:101FD00043F001030364002380F83C301846704747
:101FE0000220704770B504460D4603689A6812F4E3
:101FF000806F03D09B6813F4807F19D101F0FCFA45
:10200000064623681A6812F0020F20D1B5F1FF3F8F
:10201000F7D0B5B923681B6813F0020FF1D1236C18
:1020200043F004032364002384F83C30032032E0AF
:10203000036C43F020030364002380F83C3001204C
:1020400029E001F0D9FA801BA842DAD9E2E76FF063
:1020500012021A60236C43F40073236423689A68A5
:1020600012F0405F16D1207EB0B9DA6A12F4700F18
:1020700003D09B6813F4806F0DD1236C23F480731D
:102080002364236C13F4805F05D1236C43F00103B8
:10209000236400E0002070BD0020FCE710B582B092
:1020A00013460022019290F83C20012A00F0A780FC
:1020B0000446012280F83C200268906810F0010F6D
:1020C00013D1906840F0010090604E4A10684E4A6B
:1020D000A2FB0020800C00EB4000019002E0019880
:1020E0000138019001980028F9D12268906810F415
:1020F000807F03D0906820F48070906022689068A0
:1021000010F0010F70D0206C20F4E06020F001008E
:1021100040F480702064526812F4806F05D0226C05
:1021200022F4405242F480522264226C12F4805F06
:102130003BD0626C22F006026264002284F83C20EC
:10214000A26B3248D063A26B31481064A26B314855
:10215000D06422686FF0220010602068426842F06C
:10216000806242602068826842F4807282602068E7
:102170000A4600F14C01A06B01F052F8264B5B6857
:1021800013F01F0F23D12368244A934216D002F57F
:10219000807293420CD0224A93422ED102F5807273
:1021A000526812F0100F28D108E000226264C4E7E0
:1021B00002F50072526812F01F0FECD19A6812F00B
:1021C000405F1AD19A6842F080429A6015E0236815
:1021D000124A934211D19A6812F0405F0DD19A6869
:1021E00042F080429A6008E0236C43F010032364BD
:1021F000636C43F001036364002002B010BD022051
:10220000FBE700BF0800002083DE1B430D2400080D
:10221000A7220008F7230008002301400020014006
:102220000022014090F83C30012B35D010B5044617
:10223000012380F83C300268936823F00103936027
:1022400003689A6812F0010F21D19A6822F4807213
:102250009A60806B90F83530DBB2022B0ED00020F4
:102260002268536823F080635360236C23F48853FF
:1022700023F0010343F00103236409E001F005F8B2
:102280000028EDD0236C43F040032364E8E70020EE
:10229000002384F83C3010BD022070470368D86CDE
:1022A00070477047704708B5806BFFF7FBFF08BDAC
:1022B0007047704770B5044603681E685D6816F085
:1022C000020F2FD005F0200262B3026C12F0100F43
:1022D00003D1026C42F4007202649A6812F0405F0B
:1022E00019D1227EBAB9DA6A12F4700F03D09A6853
:1022F00012F4806F0FD15A6822F020025A60236CCA
:1023000023F480732364236C13F4805F03D1236C64
:1023100043F0010323642046FFF7C3FF23686FF0F7
:1023200012021A6005F0800316F0040F37D0002B5C
:1023300035D0236C13F0100F03D1236C43F40053FA
:10234000236423689A6812F4401F21D19A6B12F417
:10235000401F03D09A6812F4806F19D15A6812F4A2
:10236000806F15D19A6812F0405F11D1227E7AB940
:102370005A6822F080025A60236C23F4805323644D
:10238000236C13F4807F03D1236C43F00103236497
:10239000204600F041F923686FF00C021A6005F046
:1023A000400316F0010F05D023B123681B6813F01A
:1023B000010F06D105F0806516F0200F00D065B939
:1023C00070BD236C43F4803323642046FFF770FF15
:1023D00023686FF001021A60ECE7636C43F00203BC
:1023E000636423686FF020051D602046FFF761FFDE
:1023F00023681D60E4E708B5806B40230364436CE9
:1024000043F004034364FFF754FF08BD08B50346D7
:10241000806B026C12F0500F25D1036C43F40073F3
:10242000036403689A6812F0405F19D1027EBAB95A
:10243000DA6A12F4700F03D09A6812F4806F0FD129
:102440005A6822F020025A60036C23F480730364FC
:10245000036C13F4805F03D1036C43F00103036446
:10246000FFF71FFF08BD026C12F0100F04D1826B42
:10247000D26C18469047F5E7FFF71BFFF2E7000024
:1024800030B482B00023019390F83C30012B00F06F
:10249000BB80012380F83C300B68092B41D90468CC
:1024A000E2689BB203EB43031E3B4FF0070C0CFAB0
:1024B00003F322EA0303E3600468E2680B8803EB9A
:1024C00043031E3B8D6805FA03F31343E3604B6837
:1024D000062B3DD80468626B03EB8303053B4FF08A
:1024E0001F0C0CFA03F322EA030363630468626BB4
:1024F0004B6803EB8303053BB1F800C00CFA03F310
:10250000134363630268414B9A4251D002683F4BC8
:102510009A4256D0002380F83C30184602B030BCB6
:102520007047046822699BB203EB43034FF0070C2A
:102530000CFA03F322EA03032361046822690B887F
:1025400003EB43038D6805FA03F313432361BEE7EE
:102550000C2B16D805682A6B03EB8303233B1F243F
:1025600004FA03F322EA03032B6305682A6B4B6822
:1025700003EB8303233B0C8804FA03F313432B631D
:10258000C0E70568EA6A03EB8303413B1F2404FAB2
:1025900003F322EA0303EB620568EA6A4B6803EB84
:1025A0008303413B0C8804FA03F31343EB62A9E76E
:1025B0000B68122BAAD1164A536843F48003536068
:1025C000A4E70B68103B012BA4D8114A536843F4CD
:1025D000000353600B68102B9CD10E4B1B6802F15B
:1025E000467202F52E3202F28332A2FB03239B0CC9
:1025F00003EB83035B00019302E0019B013B01932A
:10260000019B002BF9D185E7022087E700200140DC
:10261000002301400800002070470000002800F05F
:10262000E08170B582B00446036813F0010F3BD01F
:102630009F4B9B6803F00C03042B2CD09C4B9B6896
:1026400003F00C03082B21D06368B3F5803F4FD013
:10265000B3F5A02F52D0964B1A6822F480321A603C
:102660001A6822F480221A606368002B50D000F0B0
:10267000C3FF05468E4B1B6813F4003F14D100F0D6
:10268000BBFF401B6428F5D90320B1E1884B5B6890
:1026900013F4800FD8D0864B1B6813F4003F03D08F
:1026A0006368002B00F09F81236813F0020F54D061
:1026B0007F4B9B6813F00C0F3ED07D4B9B6803F063
:1026C0000C03082B33D0E368002B68D0794B012230
:1026D0001A6000F091FF0546754B1B6813F0020F5E
:1026E00054D100F089FF401B0228F5D903207FE177
:1026F0006F4A136843F480331360B5E76C4B1A6874
:1027000042F480221A601A6842F480321A60ABE701
:1027100000F072FF0546664B1B6813F4003FC3D000
:1027200000F06AFF401B6428F5D9032060E1604B8C
:102730005B6813F4800FC6D15D4B1B6813F0020F6A
:1027400003D0E368012B40F05081594A136823F00D
:10275000F803216943EAC1031360236813F0080FEB
:1027600042D063696BB3534B0122C3F8802E00F053
:1027700043FF05464E4B5B6F13F0020F34D100F060
:102780003BFF401B0228F5D9032031E1484A13687A
:1027900023F0F803216943EAC1031360DDE7454BE9
:1027A00000221A6000F028FF0546414B1B6813F019
:1027B000020FD2D000F020FF401B0228F5D90320E1
:1027C00016E13C4B0022C3F8802E00F015FF0546B1
:1027D000374B5B6F13F0020F06D000F00DFF401B6C
:1027E0000228F5D9032003E1236813F0040F77D002
:1027F0002F4B1B6C13F0805F33D1002301932C4BC4
:102800001A6C42F080521A641B6C03F080530193DF
:10281000019B0125284B1B6813F4807F23D0A368FC
:10282000012B34D0052B38D0214B1A6F22F0010236
:102830001A671A6F22F004021A67A368002B3DD0B2
:1028400000F0DAFE06461A4B1B6F13F0020F46D15A
:1028500000F0D2FE801B41F288339842F3D9032066
:10286000C6E00025D6E7144A136843F4807313606A
:1028700000F0C2FE0646104B1B6813F4807FCED1D9
:1028800000F0BAFE801B0228F5D90320B0E0084A08
:10289000136F43F001031367CFE7054B1A6F42F044
:1028A00004021A671A6F42F001021A67C5E700BFF7
:1028B00000380240000047420070004000F09CFEDB
:1028C0000646524B1B6F13F0020F08D000F094FE27
:1028D000801B41F288339842F3D9032088E0EDB998
:1028E000A369002B00F08380484A926802F00C0232
:1028F000082A51D0022B17D0454B00221A6600F04F
:102900007BFE0446414B1B6813F0007F42D000F071
:1029100073FE001B0228F5D9032069E03B4A136CC3
:1029200023F080531364DBE7394B00221A6600F072
:1029300063FE0546354B1B6813F0007F06D000F0A0
:102940005BFE401B0228F5D9032051E0E369226AAF
:102950001343626A43EA8213A26A5208013A43EAC5
:102960000243E26A43EA0263284A5360284B012289
:102970001A6600F041FE0446244B1B6813F0007FEA
:1029800006D100F039FE001B0228F5D903202FE004
:1029900000202DE000202BE0012B2BD01B4B5B688F
:1029A00003F48001E269914226D103F03F02216ADB
:1029B0008A4223D1616A47F6C0721A40B2EB811F86
:1029C0001ED103F44031A26A5208013AB1EB024F22
:1029D00018D103F07063E26AB3EB026F14D10020E8
:1029E00006E001207047012002E0012000E0002005
:1029F00002B070BD0120FBE70120F9E70120F7E7F5
:102A00000120F5E70120F3E70120F1E7003802405B
:102A10000000474208B5254B9B6803F00C03042BCC
:102A20003FD0082B3FD1214B5A6802F03F025B6830
:102A300013F4800F12D01D4B5968C1F388111C4844
:102A40000023A1FB0001FDF7CFFD184B5B68C3F32A
:102A5000014301335B00B0FBF3F025E0134B5968F1
:102A6000C1F3881C4FEA4C11B1EB0C006EEB0E0E5B
:102A70004FEA8E1343EA90638101091A63EB0E0358
:102A8000DB0043EA5173C90011EB0C0C43F1000366
:102A9000990200234FEA8C2041EA9C51FDF7A4FDE6
:102AA000D3E7034800E0034808BD00BF00380240F8
:102AB000001BB7000024F400002800F09B8070B5D4
:102AC0000D4604464F4B1B6803F007038B4208D2A8
:102AD000CBB24C4A1370136803F007038B4240F0EB
:102AE0008B80236813F0020F17D013F0040F04D06B
:102AF000454A936843F4E0539360236813F0080F4A
:102B000004D0414A936843F4604393603E4A93681B
:102B100023F0F003A1680B439360236813F0010FC7
:102B200032D06368012B21D09A1E012A25D9364A5A
:102B3000126812F0020F61D033498A6822F0030252
:102B400013438B6000F058FD06462F4B9B6803F043
:102B50000C036268B3EB820F16D000F04DFD801BB2
:102B600041F288339842F0D9032042E0264A1268A5
:102B700012F4003FE0D101203BE0234A126812F03A
:102B8000007FD9D1012034E01E4B1B6803F00703FE
:102B9000AB4207D9EAB21B4B1A701B6803F007035C
:102BA000AB422DD1236813F0040F06D0164A936868
:102BB00023F4E053E1680B439360236813F0080F9C
:102BC00007D0114A936823F46043216943EAC103A3
:102BD0009360FFF71FFF0C4B9B68C3F303130B4A73
:102BE000D35CD8400A4B18600A4B1868FEF776FB96
:102BF000002070BD012070470120FAE70120F8E7AE
:102C00000120F6E7003C024000380240D08C00086A
:102C10000800002004000020014B1868704700BF26
:102C20000800002008B5FFF7F7FF044B9B68C3F3CB
:102C30008223034AD35CD84008BD00BF003802405D
:102C4000E08C000808B5FFF7E7FF044B9B68C3F36F
:102C50004233034AD35CD84008BD00BF003802406D
:102C6000E08C00080F2303600B4B9A6802F003020C
:102C700042609A6802F0F00282609A6802F4E052C0
:102C8000C2609B68DB0803F4E0530361034B1B68DD
:102C900003F007030B60704700380240003C02401D
:102CA00000230F2B00F2E48070B582B060E08568ED
:102CB0005E000324B44025EA0405CC68B4402C43EC
:102CC0008460456825EA02054C68C4F300129A4006
:102CD0002A4342605AE0DC08083450F8246003F0CC
:102CE000070295000F22AA4026EA020E0A69AA40AE
:102CF00042EA0E0240F824205CE0072200E00022B5
:102D000002FA0EF22A4302345A4D45F824205A4A58
:102D100094686FEA0C0224EA0C054E6816F4801FD2
:102D200001D04CEA0405544CA560E46802EA0405AD
:102D30004E6816F4001F01D04CEA04054E4CE560C5
:102D4000646802EA04054E6816F4003F01D04CEABC
:102D50000405494C6560246822404D6815F4803FA5
:102D600001D04CEA0402444C226001330F2B7DD881
:102D700001229A400C6804EA020C32EA0404F4D1FD
:102D80004C6804F00304013C012C90D94A6802F01D
:102D90000302032A09D0C4685D000322AA4024EA82
:102DA00002048A68AA402243C2604A6802F0030211
:102DB000022A90D004684FEA430E032202FA0EF270
:102DC00024EA02044A6802F0030202FA0EF22243E5
:102DD00002604A6812F4403FC7D000220192274A9D
:102DE000546C44F480445464526C02F48042019266
:102DF000019A9C08A51C1F4A52F8255003F00302B3
:102E00004FEA820E0F2202FA0EF225EA02051C4A50
:102E100090423FF474AF02F5806290421AD002F5FE
:102E20008062904218D002F58062904216D002F57E
:102E30008062904214D002F58062904212D002F576
:102E40008062904210D002F5806290423FF455AF0C
:102E5000082255E7012253E7022251E703224FE7F8
:102E600004224DE705224BE7062249E702B070BD78
:102E7000704700BF00380140003C0140003802406C
:102E80000000024000230F2B00F28F80F0B52DE0F0
:102E9000072500E0002505FA0CFCA44569D004686C
:102EA0005D004FF0030C0CFA05FC24EA0C040460EE
:102EB0004FEAD30E0EF1080E50F82E4003F007052E
:102EC000AE000F25B54024EA050440F82E40C46842
:102ED00024EA0C04C460446824EA02024260826866
:102EE00022EA0C02826001330F2B5DD801229A4046
:102EF00002EA010632EA0104F5D14FEA930E0EF11F
:102F000002052A4C54F8254003F0030C4FEA8C0CC0
:102F10000F2505FA0CF73C40254DA842BAD005F51F
:102F20008065A84219D005F58065A84217D005F53F
:102F30008065A84215D005F58065A84213D005F537
:102F40008065A84211D005F58065A8420FD005F52F
:102F50008065A8429CD008259DE701259BE70225B6
:102F600099E7032597E7042595E7052593E70625C7
:102F700091E7104C256825EA06052560656825EA75
:102F800006056560E56825EA0605E560A56825EAA9
:102F90000606A660054E0EF1020456F8245025EAF6
:102FA000070546F824507AE7F0BD70470038014025
:102FB00000000240003C01400369194201D0012099
:102FC0007047002070470AB1816170470904816130
:102FD0007047000008B5054B5B69034200D108BD8E
:102FE000024B5861FEF750F9F9E700BF003C014081
:102FF00030B405682C6824F480242C600468636075
:103000008368402B05D0036899600368DA6030BCA0
:10301000704703689A600368D960F8E710B40368E2
:10302000D9B210390C4AA2FB014212090B4CA25C26
:10303000C2655F2909D923F47F7323F003030433A6
:103040008365806D5DF8044B704723F47F7323F034
:1030500003038365F5E700BFABAAAAAAC88C0008E2
:10306000836A826992B9012B0AD0022B02D00BB17C
:1030700000207047C36A13F0807F28D1002070477A
:10308000C36AB3F1C07F24D000207047B2F5005F5F
:1030900009D0022B25D9032B25D1C36A13F0807FD9
:1030A00023D100207047032B03D8DFE803F014047A
:1030B000140A00207047C36A13F0807F0DD10020EE
:1030C0007047C36AB3F1C07F09D000207047012068
:1030D0007047012070470120704701207047012090
:1030E00070470120704700207047012070470000A2
:1030F00070B5044600F080FA002C5BD00546022330
:1031000084F83530002384F834302268136823F0C3
:103110000103136023681A6812F0010F0AD000F04F
:103120006BFA431B052BF5D920236365032084F834
:10313000350070BD1A68204810406168A2680A43D3
:10314000E1680A4321690A4361690A43A1690A43A4
:10315000E1690A43216A0A430243616A04291ED0D5
:103160001A602668756925F00705636A1D43042BFC
:1031700007D1A36A1D43E36A1BB12046FFF770FF26
:1031800090B975612046FFF749FFE26D3F239340F8
:10319000836000206065012384F83530C9E7E16A67
:1031A000206B01430A43DBE740236365012084F879
:1031B0003500BEE70120BCE73F8010F000282DD08D
:1031C00038B5054690F83500C0B2022825D02A68E7
:1031D000136823F0010313602B6800241C602B6824
:1031E0005C602B689C602B68DC602B681C612B6822
:1031F00021225A612846FFF711FFEC632C646C64AE
:10320000AC64EC642C65EA6D3F23934083606C658D
:1032100085F8354085F83440204638BD0120704798
:1032200038B50446856D90F8340001282BD0012074
:1032300084F8340094F83500C0B2012804D000238B
:1032400084F83430022038BD022084F83500002094
:1032500060652046FFF7CCFEE26D3F239340AB60F4
:103260002268136843F016031360236C23B12268AD
:10327000136843F0080313602268136843F00103E6
:1032800013600020DFE70220DDE770B50446866D9D
:1032900000F0B2F994F83530DBB2022B06D080236F
:1032A0006365002384F83430012070BD0546226830
:1032B000136823F0160313602268536923F0800318
:1032C0005361236CE3B12268136823F00803136091
:1032D0002268136823F00103136023681B6813F04E
:1032E000010F11D000F088F9431B052BF5D92023DD
:1032F0006365032084F83500002384F83430D4E774
:10330000A36C002BDFD1E3E7E26D3F239340B36072
:10331000012384F83530002084F83400C5E700002C
:10332000F0B583B0044600230193724B1D68724BC5
:10333000A3FB0535AD0A876D3E68C26D0823934037
:10334000334210D003681A6812F0040F0BD01A68C9
:1033500022F004021A60C26D08239340BB60436DE3
:1033600043F001034365E26D01239340334209D0EA
:103370002268526912F0800F04D0BB60636D43F085
:1033800002036365E26D04239340334209D022684F
:10339000126812F0020F04D0BB60636D43F00403A7
:1033A0006365E26D10239340334224D02268126893
:1033B00012F0080F1FD0BB6023681A6812F4802F28
:1033C0000DD01B6813F4002F04D1236C9BB1204651
:1033D000984710E0A36C73B1204698470BE01A6839
:1033E00012F4807F03D11A6822F008021A60236C5D
:1033F0000BB120469847E26D20239340334255D0CD
:103400002268126812F0100F50D0BB6094F835306B
:10341000DBB2052B0ED023681A6812F4802F33D04C
:103420001B6813F4002F2AD1636C002B3ED020467A
:1034300098473BE02268136823F016031360226864
:10344000536923F080035361236CA3B1226813688E
:1034500023F008031360E26D3F239340BB60012318
:1034600084F83530002384F83430236D002B3FD0AE
:10347000204698473CE0A36C002BE7D1EBE7E36BD9
:10348000A3B12046984711E01A6812F4807F09D151
:103490001A6822F010021A60012384F835300023E4
:1034A00084F83430E36B0BB120469847636DFBB171
:1034B000636D13F0010F17D0052384F835302268AF
:1034C000136823F001031360019B01330193AB42A6
:1034D00004D823681B6813F0010FF5D1012384F889
:1034E0003530002384F83430E36C0BB12046984724
:1034F00003B0F0BD08000020B5814E1B074AD36819
:1035000023F4E0631B041B0C000200F4E06003439F
:1035100043F0BF6343F40033D360704700ED00E035
:1035200000B5194BDB68C3F30223C3F1070CBCF1F0
:10353000040F28BF4FF0040C03F1040EBEF1060F78
:1035400018D9033B4FF0FF3E0EFA0CFC21EA0C01A8
:1035500099400EFA03F322EA0303194300280BDB18
:103560000901C9B200F1604000F5614080F8001324
:103570005DF804FB0023E5E700F00F000901C9B284
:10358000024B1954F4E700BF00ED00E014ED00E039
:10359000002807DB00F01F02400901239340024A84
:1035A00042F82030704700BF00E100E008B50B4B47
:1035B0001A6842F400721A601A6842F480621A6053
:1035C0001A6842F480721A600320FFF797FF0F20F9
:1035D000FDF784FEFDF760FE002008BD003C0240C0
:1035E000034A1168034B1B780B441360704700BFFC
:1035F0008803002000000020014B1868704700BFBE
:103600008803002003685A6912F4806F01D10020FA
:1036100070476FF480625A6100230363202280F8B0
:103620003D2080F83E30026C42F00402026480F8D3
:103630003C30012070472DE9F04106460C46174604
:1036400098463BE0FFF7D8FF069BC01A404502D8DA
:10365000B8F1000F32D1012D18D033689B6924EAEC
:1036600003039BB2B3FA83F35B099F4226D1002385
:103670003363202286F83D2086F83E30326C42F0DB
:103680002002326486F83C30012027E033685B6911
:1036900024EA03039BB2B3FA83F35B09E5E73368DB
:1036A0005B6924EA030C1FFA8CFCBCFA8CFC4FEA21
:1036B0005C1C674511D1B8F1FF3FC3D1C4F3074586
:1036C000012DECD033689B6924EA030C1FFA8CFCB3
:1036D000BCFA8CFC4FEA5C1CEBE70020BDE8F081F3
:1036E0002DE9F84305460E469046994653E01A6880
:1036F00042F400721A602B686FF480625A610023F2
:103700002B63202285F83D2085F83E302A6C42F05C
:1037100004022A6485F83C3001204AE0FFF76CFF80
:10372000A0EB0900404502D8B8F1000F33D1012FBA
:1037300017D02B689B6926EA03039BB2003B18BF96
:10374000012343B300232B63202285F83D2085F815
:103750003E302A6C42F020022A6485F83C30012079
:1037600027E02B685B6926EA03039BB2003B18BF86
:103770000123E6E72B689C6926EA0404A4B2003C16
:1037800018BF0124A4B12B685A6912F4806FAED11E
:10379000B8F1FF3FC2D1C6F30747012FEAD12B682A
:1037A0005C6926EA0404A4B2003C18BF0124E9E7DE
:1037B0000020BDE8F8830000F0B583B004460D4654
:1037C00016461F46C36A082B0DD0012B0BD013F5EC
:1037D000803F08D0036B122B0AD10268136843F4B0
:1037E0008073136004E02268136843F480731360ED
:1037F0000097334600224FF001112046FFF71BFFD0
:1038000080B92369B3F5804F16D1236805F0FE0512
:103810001D613B46324613492046FFF761FFF8B968
:1038200003B0F0BD23681B6813F4807F02D04FF40F
:10383000007323640320F3E7EB11226803F006030F
:1038400043F0F00313613B46324607492046FFF739
:1038500047FF18B92368EDB21D61DAE70120DFE701
:103860000120DDE7020001000800010070B50446F8
:103870000D46164623685B6913F0800F21D1204660
:10388000FFF7C0FEF8B9B5F1FF3FF3D0FFF7B4FE84
:10389000801BA84201D8002DECD123685B6913F08E
:1038A000800FE7D100232363202284F83D2084F891
:1038B0003E30226C42F02002226484F83C30012029
:1038C00000E0002070BD0120FCE770B504460D4605
:1038D000164623685B6913F0040F21D12046FFF7D9
:1038E00091FEF8B9B5F1FF3FF3D0FFF785FE801BDD
:1038F000A84201D8002DECD123685B6913F0040FB6
:10390000E7D100232363202284F83D2084F83E3051
:10391000226C42F02002226484F83C30012000E056
:10392000002070BD0120FCE7002800F0CC8070B5BD
:10393000044690F83D30002B77D0242384F83D30A6
:103940002268136823F0010313602268136843F4AC
:10395000004313602268136823F400431360FFF7E9
:1039600061F962685A4B9A4264D85A4B98428CBFAC
:1039700000230123002B40F0A8805749A1FB003110
:103980008B0C25686A6822F03F0242EA91426A6025
:1039900021680A6A22F03F0266684D4DAE424FD858
:1039A000013313430B622168CA6922F44F4222F0AB
:1039B000FF026668464B9E424CD8431E7600B3FB1E
:1039C000F6F3013340F6FC70034278D0C3F30B03E7
:1039D0001343CB6121680B6823F0C003E269206ABE
:1039E000024313430B6021688B6823F4034323F0E5
:1039F000FF032269E068024313438B602168CB68B0
:103A000023F0FF036269A06902431343CB6022687D
:103A1000136843F00103136000202064202384F81E
:103A20003D30206384F83E0070BD80F83C30FDF7E7
:103A30003DFA82E7294B98428CBF0023012399E786
:103A40004FF4967505FB03F3254DA5FB03539B0926
:103A50000133A6E7A368BBB9451E06EB460CB5FBD0
:103A6000FCF50135C5F30B05B5FA85F56D0945BBC8
:103A7000C3B9013806EB4603B0FBF3F30133C3F3DC
:103A80000B0343F40043A3E7451E06EB860C0CEB47
:103A90008C0CB5FBFCF50135C5F30B05B5FA85F5C6
:103AA0006D09E4E7013806EB860303EB8303B0FB03
:103AB000F3F30133C3F30B0343F4404388E70423D8
:103AC00086E7012384E7012070470120ACE700BFAF
:103AD000A08601007F841E0083DE1B43FF083D009B
:103AE000D34D62102DE9F04385B004460F46914650
:103AF00098460C9EFFF780FD054694F83D00C0B245
:103B0000202804D00227384605B0BDE8F083009590
:103B1000192301224F492046FFF78DFD002840F070
:103B2000928094F83C30012B00F08F80012384F8C0
:103B30003C3023681A6812F0010F03D11A6842F072
:103B400001021A602268136823F4006313602123C2
:103B500084F83D30102384F83E3000232364C4F8F9
:103B60002490A4F82A80638D23853B4BE3622B4687
:103B7000324639462046FFF71FFE0746002866D129
:103B80000023039323685A6903929B690393039B61
:103B900011E0236C042B01D00127B4E722681368DD
:103BA00043F400731360F7E72A4631462046FFF7D7
:103BB0008CFE00282ED1238D002B36D02A4631468C
:103BC0002046FFF753FE0028E3D1626A236812788B
:103BD0001A61606A431C6362618D89B2013989B2DE
:103BE0006185238D013B9BB223852268516911F0C9
:103BF000040FD9D0002BD7D043781361636A013307
:103C00006362638D9BB2013B9BB26385238D013B55
:103C10002385C9E7236C042B01D0012773E72268B1
:103C2000136843F400731360F7E72268136843F4E2
:103C300000731360202384F83D30002384F83E3065
:103C400084F83C305FE702275DE702275BE7012746
:103C500059E700BF020010000000FFFF38B504461E
:103C60000268136923F44053C1680B4313618368EE
:103C70000269134342691343C2691A430168CB685E
:103C800023F4164323F00C031343CB6002685369FB
:103C900023F4407381690B4353610368314A9342B3
:103CA00006D002F58062934202D0FEF7BBFF01E02E
:103CB000FEF7C8FFE369B3F5004F29D000210318D0
:103CC00049411B1841F10001C90041EA5371DB0071
:103CD000181863684FEA83024FEA937341F10001B9
:103CE000FCF782FC204DA5FB00325109642303FB45
:103CF00011031B013233A5FB03235B0903F0F00220
:103D000002EB011203F00F03216813448B6038BDEE
:103D10000023021843EB0301121841F10001C9000E
:103D200041EA5271D200101841F100016268921804
:103D30005B41FCF759FC0C4DA5FB00325109642393
:103D400003FB1103DB003233A5FB03235B095A009D
:103D500002F4F87202EB011203F007032168134426
:103D60008B60D4E7001001401F85EB5160B310B5A4
:103D7000044690F8413013B3242384F8413022687C
:103D8000D36823F40053D3602046FFF767FF22680F
:103D9000136923F4904313612268536923F02A03C3
:103DA00053612268D36843F40053D36000206064F9
:103DB000202384F8413084F84230606310BD80F8DD
:103DC0004030FDF7CDF9D7E701207047034AD2F81C
:103DD000883043F47003C2F88830704700ED00E08B
:103DE00000F1080343604FF0FF328260C36003615B
:103DF00000230360704700230361704743684B60F2
:103E00009A688A60516099600861036801330360B1
:103E1000704730B40D68B5F1FF3F11D000F10803D1
:103E20001C465B681A68AA42FAD963684B609960BD
:103E30008C606160086103680133036030BC7047C7
:103E40000469F2E70369416882688A6041685160E9
:103E50005A68824206D0002202611A68013A1A604A
:103E60001868704782685A60F5E70346406A18B1DF
:103E70001B6B1868C0F13800704710B5044602F09B
:103E800081F8A26BE36B9A4204D0002402F09CF804
:103E9000204610BD0124F9E710B5044602F072F87F
:103EA000A36B23B9012402F08FF8204610BD002433
:103EB000F9E770B504461546866B026C5AB903687B
:103EC0001BB100200136A66370BD806801F0D8F9EF
:103ED0000023A360F6E76DB9406804F03FF8226C58
:103EE000636813446360A268934219D323686360D4
:103EF0002846E7E7C06804F031F8226C5142E368D5
:103F00009B1AE3602268934202D2A3680B44E360E9
:103F1000022D01D00020D5E726B1013E0020D1E7D7
:103F20002846CFE70020CDE70346026C6AB110B502
:103F30000846D9681144D9609C68A14201D3196828
:103F4000D960D96804F00AF810BD704738B5054645
:103F500002F018F895F8454064B201E0013C64B203
:103F6000002C0ADD6B6A43B105F1240001F08CF8E6
:103F70000028F3D001F01CF9F0E7FF2385F8453065
:103F800002F022F801F0FEFF95F8444064B201E02F
:103F9000013C64B2002C0ADD2B6943B105F110002D
:103FA00001F072F80028F3D001F002F9F0E7FF23E6
:103FB00085F8443002F008F838BD38B5E0B10D4658
:103FC000044601F0DFFF2368E26B216C01FB023045
:103FD000A0600020A0636360013A02FB0133E3604C
:103FE000FF2384F8443084F84530FDB9236963B970
:103FF00001F0EAFF012038BD4FF0500383F3118830
:10400000BFF36F8FBFF34F8FFEE704F1100001F095
:104010003BF80028ECD04FF0E0234FF08052C3F87B
:10402000042DBFF34F8FBFF36F8FE1E704F1100052
:10403000FFF7D6FE04F12400FFF7D2FED8E738B52B
:104040001D46049C0B4649B92460E06323640121AA
:104050002046FFF7B2FF84F84C5038BD2260F4E7E9
:1040600040B94FF0500383F31188BFF36F8FBFF354
:104070004F8FFEE710B584B01C46844653B192B111
:1040800089B94FF0500383F31188BFF36F8FBFF3EB
:104090004F8FFEE74FF0500383F31188BFF36F8F0C
:1040A000BFF34F8FFEE76AB150230393039B502B5E
:1040B00013D04FF0500383F31188BFF36F8FBFF31A
:1040C0004F8FFEE70029EFD04FF0500383F31188A4
:1040D000BFF36F8FBFF34F8FFEE7039B012384F87D
:1040E000463000949DF818306046FFF7A8FF204640
:1040F00004B010BD40B94FF0500383F31188BFF3F3
:104100006F8FBFF34F8FFEE7F0B583B00D461446B7
:10411000064601FB00F0503001F00EFE074650B19C
:10412000002380F846300090234600F150022946D3
:104130003046FFF784FF384603B0F0BDF0B585B0D8
:10414000019288B10F461D460446B1B1022D20D11F
:10415000E36B012B1DD04FF0500383F31188BFF3A5
:104160006F8FBFF34F8FFEE74FF0500383F311883B
:10417000BFF36F8FBFF34F8FFEE7036C002BE5D0CB
:104180004FF0500383F31188BFF36F8FBFF34F8F4E
:10419000FEE701F019F8064658B9019B002B48D0FC
:1041A0004FF0500383F31188BFF36F8FBFF34F8F2E
:1041B000FEE700263DE02A4639462046FFF779FE15
:1041C000636A7BB948B14FF0E0234FF08052C3F8E7
:1041D000042DBFF34F8FBFF36F8F01F0F5FE012069
:1041E00005B0F0BD04F1240000F04EFF0028F4D02B
:1041F0004FF0E0234FF08052C3F8042DBFF34F8FF0
:10420000BFF36F8FE9E701F0DFFE0020E8E702A8C7
:1042100000F080FF012619E0002384F8443021E0FB
:10422000002384F8453023E02046FFF78FFE00F09E
:104230000BFE01F0A7FEA26BE36B9A42BBD3022DEB
:10424000B9D0019B002BDED0002EE0D001F0BCFEE7
:1042500000F060FD01F096FE94F8442052B2B2F1F5
:10426000FF3FD9D094F8452052B2B2F1FF3FD7D0EA
:1042700001F0AAFE01A902A800F058FFD8B9204613
:10428000FFF7FBFD0028CFD0019904F1100000F0EA
:10429000C7FE2046FFF75AFE00F0D6FD0028C8D121
:1042A0004FF0E0234FF08052C3F8042DBFF34F8F3F
:1042B000BFF36F8FBDE72046FFF748FE00F0C4FD57
:1042C00000208DE748B108B5002181600160C16020
:1042D0000B460A46FFF732FF08BD704710B502468D
:1042E00000210120FFF706FF0446FFF7EBFF204601
:1042F00010BD10B582B00B4600900022114601207F
:10430000FFF7AEFE0446FFF7DDFF204602B010BD0A
:1043100038B538B10446856800F050FF85420AD0B0
:10432000002038BD4FF0500383F31188BFF36F8F27
:10433000BFF34F8FFEE7E368013BE3600BB1012061
:10434000EFE71A4619462046FFF7F8FE0120E8E796
:104350002DE9F84390B10F4616461C460546B1B10B
:10436000022C20D1EB6B012B1DD04FF0500383F3B7
:104370001188BFF36F8FBFF34F8FFEE74FF05003ED
:1043800083F31188BFF36F8FBFF34F8FFEE7036C8A
:10439000002BE5D04FF0500383F31188BFF36F8FEC
:1043A000BFF34F8FFEE701F013FFEFF311894FF0DA
:1043B000500383F31188BFF36F8FBFF34F8FAA6B46
:1043C000EB6B9A4206D3022C04D0002089F31188AB
:1043D000BDE8F88395F845804FFA88F8AB6B224624
:1043E00039462846FFF765FDB8F1FF3F06D008F1D2
:1043F00001035BB285F845300120E7E76B6A0BB932
:104400000120E3E705F1240000F03EFE18B126B1DB
:1044100001203060DAE70120D8E70120D6E7F0B5C7
:1044200085B0019290B10F460446C1B100F0CCFEB8
:10443000064600BB019B002B5ED04FF0500383F378
:104440001188BFF36F8FBFF34F8FFEE74FF050031C
:1044500083F31188BFF36F8FBFF34F8FFEE7036CB9
:10446000002BE3D04FF0500383F31188BFF36F8F1D
:10447000BFF34F8FFEE700263EE039462046FFF7A8
:1044800053FD013DA563236923B901F09DFD012082
:1044900005B0F0BD04F1100000F0F6FD0028F4D0E6
:1044A0004FF0E0234FF08052C3F8042DBFF34F8F3D
:1044B000BFF36F8FE9E701F087FD0020E8E702A86E
:1044C00000F028FE012621E0002384F8443029E092
:1044D000002384F845302BE02046FFF737FD00F03D
:1044E000B3FC09E02046FFF731FD00F0ADFC2046AB
:1044F000FFF7D2FC00283FD101F044FDA56B002D51
:10450000BBD1019B002BD6D0002ED8D001F05CFD92
:1045100000F000FC01F036FD94F844305BB2B3F1DA
:10452000FF3FD1D094F845305BB2B3F1FF3FCFD01D
:1045300001F04AFD01A902A800F0F8FD0028D1D140
:104540002046FFF7A9FC0028C6D0019904F12400F9
:1045500000F066FD2046FFF7F9FC00F075FC00282E
:10456000CAD14FF0E0234FF08052C3F8042DBFF3BF
:104570004F8FBFF36F8FBFE7002089E770B584B01E
:10458000019158B10446036C8BB14FF0500383F393
:104590001188BFF36F8FBFF34F8FFEE74FF05003CB
:1045A00083F31188BFF36F8FBFF34F8FFEE700F0E7
:1045B0000BFE054650B9019B5BB14FF0500383F3EE
:1045C0001188BFF36F8FBFF34F8FFEE7002635468C
:1045D00055E0064653E0013BA36323683BB12369E2
:1045E0004BB901F0F1FC0126304604B070BD00F07B
:1045F000DFFEA060F3E704F1100000F045FD0028A5
:10460000EFD04FF0E0234FF08052C3F8042DBFF3FA
:104610004F8FBFF36F8FE4E746B14FF0500383F342
:104620001188BFF36F8FBFF34F8FFEE701F0CCFC13
:10463000DAE702A800F06EFD01252AE0002384F8E5
:10464000443032E0002384F8453034E001F09AFC35
:10465000A06800F0C9FD064601F0B6FC3BE020462C
:10466000FFF774FC00F0F0FB09E02046FFF76EFC5A
:1046700000F0EAFB2046FFF70FFC002842D101F0D2
:1046800081FCA36B002BA6D1019B002BC4D0002D75
:10469000CFD001F099FC00F03DFB01F073FC94F8E1
:1046A00044305BB2B3F1FF3FC8D094F845305BB201
:1046B000B3F1FF3FC6D001F087FC01A902A800F0CA
:1046C00035FD0028D1D12046FFF7E6FB0028C6D0F3
:1046D0002368002BBAD0019904F1240000F0A0FC5B
:1046E0002046FFF733FC00F0AFFB0028C7D14FF0A6
:1046F000E0234FF08052C3F8042DBFF34F8FBFF378
:104700006F8FBCE70EB900266EE701F03BFC204638
:10471000FFF7ABFB0146A06800F0FAFD01F054FC86
:10472000F1E780B170B50C460546866800F046FD9D
:10473000864211D021462846FFF720FF80B1EB6862
:104740000133EB600CE04FF0500383F31188BFF3AB
:104750006F8FBFF34F8FFEE7EB680133EB600120F3
:1047600070BD2DE9F843B0B10D4616460446D9B1E7
:1047700001F02EFDEFF311884FF0500383F3118801
:10478000BFF36F8FBFF34F8FA76BCFB9002088F3B4
:104790001188BDE8F8834FF0500383F31188BFF30D
:1047A0006F8FBFF34F8FFEE7036C002BE0D04FF00D
:1047B000500383F31188BFF36F8FBFF34F8FFEE772
:1047C00094F844904FFA89F929462046FFF7ACFB4C
:1047D000013FA763B9F1FF3F06D009F101035BB2C6
:1047E00084F844300120D2E723690BB90120CEE7D9
:1047F00004F1100000F048FC18B126B1012030602F
:10480000C5E70120C3E70120C1E700000023072B13
:104810000CD8074A52F833200AB10133F7E7044AAB
:1048200042F8331002EBC30358607047704700BF73
:104830008C03002070B504460D46164601F0A2FB1D
:1048400094F844305BB2B3F1FF3F0DD094F845309B
:104850005BB2B3F1FF3F0BD001F0B6FBA36B5BB1D2
:104860002046FFF773FB70BD002384F84430EDE76A
:10487000002384F84530EFE73246294604F124004E
:1048800000F0E6FBECE70000084B1B681B6823B94F
:10489000074B4FF0FF321A607047044B1B68DB6810
:1048A000DB685A68024B1A60704700BFD0030020D3
:1048B000780800202DE9F04780460D4617469946B6
:1048C000089EDDF824A00A9C9200A521206B03F02D
:1048D00053FB236B07F18042013A03EB820727F079
:1048E0000707B5B34FF0000CBCF10F0F0BD815F84C
:1048F0000C2004EB0C0383F8342015F80C3013B1B2
:104900000CF1010CF0E7002384F84330372E00D976
:104910003726E662E66400252565201DFFF76BFA61
:1049200004F11800FFF767FA2461C6F13806A661A2
:104930006462656584F858504A464146384601F03D
:10494000F5FA2060BAF1000F01D0CAF80040BDE8C6
:10495000F087002384F83430D8E7000038B500240D
:1049600007E004EB840293000E481844FFF738FA7E
:104970000134372CF5D90C4D2846FFF731FA0B4C92
:104980002046FFF72DFA0A48FFF72AFA0948FFF7F1
:1049900027FA0948FFF724FA084B1D60084B1C60F2
:1049A00038BD00BFD80300204C080020600800205C
:1049B00084080020B00800209C080020D0030020BC
:1049C000D403002010B5044601F0DCFA224A136833
:1049D00001331360214B1B685BB1214B1B686BB922
:1049E0001E4B1B68DA6AE36A9A4207D81B4B1C60AD
:1049F00004E01A4B1C601368012B29D0194A136874
:104A0000013313606364E06A174B1B68984201D955
:104A1000154B186000EB8000211D144B03EB800048
:104A2000FFF7ECF901F0D0FA0D4B1B687BB10B4B93
:104A30001B68DA6AE36A9A4209D24FF0E0234FF02A
:104A40008052C3F8042DBFF34F8FBFF36F8F10BD9B
:104A5000FFF784FFD2E700BF38080020CC03002016
:104A6000980800204408002048080020D8030020AF
:104A700010B5044690F8593063B1012B11D0022BC8
:104A80000ED04FF0500383F31188BFF36F8FBFF345
:104A90004F8FFEE7006B01F0CDF9204601F0CAF917
:104AA00010BD01F0C7F9FBE70F4B1B68D3B110B580
:104AB00001F068FA0D4BDB68DC68201DFFF7C2F9D6
:104AC0000B4A1368013B1360074A1368013B1360EC
:104AD00001F07AFA2046FFF7CBFF034B1B68002B4F
:104AE000E6D110BD704700BF3C080020B008002090
:104AF0003808002008B5FFF7D7FF074B1B68012BCC
:104B0000F9D94FF0E0234FF08052C3F8042DBFF3E2
:104B10004F8FBFF36F8FEEE7D803002070B50446C8
:104B20000D46174B1E68174B18680430FFF78AF9BB
:104B3000B4F1FF3F0DD03444124B1B685C60A642B9
:104B400010D9114B18680F4B19680431FFF761F940
:104B500070BD002DEFD00B4B196804310B48FFF7E7
:104B60004DF9F5E70A4B1868064B19680431FFF751
:104B700050F9084B1B68A342EAD9064B1C60E7E7D3
:104B8000C4080020CC030020D40300209C0800208F
:104B9000D00300207808002030B587B00B9C7CB192
:104BA0000C9DB5B15C250495049D5C2D1AD04FF089
:104BB000500383F31188BFF36F8FBFF34F8FFEE76E
:104BC0004FF0500383F31188BFF36F8FBFF34F8F04
:104BD000FEE74FF0500383F31188BFF36F8FBFF3ED
:104BE0004F8FFEE7049D0C9D2C63022485F85940ED
:104BF00000240394029505AC01940A9C0094FFF7ED
:104C000059FE0C98FFF7DEFE059807B030BD2DE980
:104C1000F04385B00746884614461E46900001F0D2
:104C20008BF800B381465C2001F086F80546B0B1F0
:104C3000C0F83090E5B1002385F859300393029510
:104C40000D9B01930C9B0093334622464146384608
:104C5000FFF730FE2846FFF7B5FE012005E0484685
:104C600001F0E8F8E6E74FF0FF3005B0BDE8F0836B
:104C70004FF0FF30F9E7000010B588B0002405942C
:104C8000069407AA06A905A800F0DAFF059B02937F
:104C9000069B019300942346079A18491848FFF78A
:104CA0007BFF184B186040B100F0FCFB012806D0D8
:104CB000B0F1FF3F18D008B010BD0020F6E74FF06C
:104CC000500383F31188BFF36F8FBFF34F8F0E4BE9
:104CD0004FF0FF321A600D4B01221A600C4B00227C
:104CE0001A6001F0E9F9E6E74FF0500383F3118809
:104CF000BFF36F8FBFF34F8FFEE700BFE88C000854
:104D0000F54A000874080020780800209808002060
:104D1000C4080020024A136801331360704700BFC3
:104D200040080020014B1868704700BFC4080020ED
:104D3000F8B53A4B1B68002B69D1394B1D6801351A
:104D40001D60C5B9374B1B681B6843B14FF050035A
:104D500083F31188BFF36F8FBFF34F8FFEE7314AA4
:104D60001168314B186810601960304A13680133BC
:104D70001360FFF789FD2E4B1B68AB423DD900271E
:104D80002C4B1B68DB6A03EB83039A002A4B9B586E
:104D9000012B00D90127294B1B68002B3CD0012790
:104DA0003AE001271F4B1B681B6843B31D4B1B6870
:104DB000DB68DC6863689D4226D3261D3046FFF71A
:104DC00041F8A36A1BB104F11800FFF73BF8E36A4E
:104DD0001B4A1268934201D9194A136003EB8303FB
:104DE0009A00314614481044FFF708F8E26A114B64
:104DF0001B68DB6A9A42D4D2D4E70027D2E70C4B77
:104E00004FF0FF321A60BBE7094A1360B8E70D4A5A
:104E100013680133136000273846F8BD40080020AE
:104E2000C4080020D0030020D40300207C08002008
:104E300078080020CC030020D8030020C8080020F8
:104E4000480800208008002038B5354B1B6843B95E
:104E50004FF0500383F31188BFF36F8FBFF34F8F71
:104E6000FEE701F08FF82E4B1A68013A1A601B68B2
:104E7000002B4FD12B4B1B680BB900244BE00024B7
:104E8000294B1B681BB3284BDB68DC6804F1180056
:104E9000FEF7D8FF251D2846FEF7D4FFE06A234B16
:104EA0001B68984201D9214B186000EB800029460D
:104EB0001F4B03EB8000FEF7A1FFE26A1D4B1B684E
:104EC000DB6A9A42DCD31C4B01221A60D8E70CB192
:104ED000FFF7DAFC194B1C6884B9174B1C68D4B176
:104EE0004FF0E0234FF08052C3F8042DBFF34F8FF3
:104EF000BFF36F8F01240EE0013C07D0FFF718FFCE
:104F00000028F9D00C4B01221A60F5E70B4B002268
:104F10001A60E2E7002401F057F8204638BD00BFD0
:104F2000400800203808002084080020480800209D
:104F3000D8030020CC030020C808002080080020EF
:104F400010B5A8B10446104B1B6843B14FF0500395
:104F500083F31188BFF36F8FBFF34F8FFEE7FFF727
:104F6000D9FE00212046FFF7D9FDFFF76DFF48B9B4
:104F70004FF0E0234FF08052C3F8042DBFF34F8F62
:104F8000BFF36F8F10BD00BF400800201F4B1B6890
:104F90001BB11F4B01221A6070471D4B00221A6083
:104FA0001C4B1B6803EB83018A001B498A585AB9C2
:104FB0000BB1013BF6E74FF0500383F31188BFF3C9
:104FC0006F8FBFF34F8FFEE703EB830082000A442D
:104FD00050684068506003EB830C4FEA8C02083243
:104FE000114488420BD003EB830291000A4A0A4421
:104FF0005268D168094A1160064A136070474068D8
:1050000062469100044A0A445060ECE740080020E0
:10501000C808002048080020D8030020CC03002046
:1050200058B110B50C46094A11681831FEF7F1FE67
:1050300001212046FFF772FD10BD4FF0500383F3AE
:105040001188BFF36F8FBFF34F8FFEE7CC030020B3
:1050500038B570B10D4614460A4A11681831FEF78A
:10506000CDFE0CB14FF0FF3521462846FFF756FD27
:1050700038BD4FF0500383F31188BFF36F8FBFF338
:105080004F8FFEE7CC03002038B5C368DC6824B33B
:1050900004F118052846FEF7D5FE184B1B682BBBFC
:1050A000251D2846FEF7CEFEE06A154B1B68984288
:1050B00001D9134B186000EB80002946114B03EB1C
:1050C0008000FEF79BFEE26A0F4B1B68DB6A9A4288
:1050D00011D901200D4B186038BD4FF0500383F3F8
:1050E0001188BFF36F8FBFF34F8FFEE72946084843
:1050F000FEF784FEE7E70020EEE700BF400800204F
:1051000048080020D8030020CC030020C808002055
:1051100084080020034B1B680360034B1B6843603B
:10512000704700BF7C080020C4080020F8B5C8B153
:105130000C460546F9B100F025FF1B4B19686B685A
:10514000C81A2268B2F1FF3F26D0184E36682F6881
:10515000B74201D08B4224D9824215D80023236064
:1051600001241AE04FF0500383F31188BFF36F8FCF
:10517000BFF34F8FFEE74FF0500383F31188BFF367
:105180006F8FBFF34F8FFEE75B1A134423602846EF
:10519000FFF7C0FF002400E0002400F015FF2046C8
:1051A000F8BD0124F9E700BFC40800207C080020F6
:1051B000014B01221A607047C8080020014B186893
:1051C000704700BFCC030020054B1B6833B1054B73
:1051D0001B680BB100207047022070470120704708
:1051E000980800204008002000283ED038B504462A
:1051F000C36A204A1268D26A93422ED28269002A78
:1052000005DB1C4A1268D26AC2F138028261616908
:1052100003EB8303184A02EB8303994205D0154B35
:105220001B68DB6AE362012038BD251D2846FEF7B6
:1052300009FE104B1B68D86AE062104B1B6898424D
:1052400001D90E4B186000EB800029460A4B03EB96
:105250008000FEF7D3FD0120E6E7C26C054B1B681A
:10526000DB6A9A4203D30020DEE70020704701206A
:10527000DAE700BFCC030020D80300204808002054
:1052800000283BD038B504461E4B1B68834208D02B
:105290004FF0500383F31188BFF36F8FBFF34F8F2D
:1052A000FEE7036D43B94FF0500383F31188BFF35A
:1052B0006F8FBFF34F8FFEE7013B0365C16AC26C7E
:1052C00091421DD00BB1002038BD051D2846FEF7C8
:1052D000B9FDE06CE062C0F13803A3610A4B1B68C2
:1052E000984201D9084B186000EB80002946074B13
:1052F00003EB8000FEF782FD0120E5E70020704708
:105300000020E1E7CC03002048080020D80300205B
:10531000002846D038B50446036D43B94FF050031A
:1053200083F31188BFF36F8FBFF34F8FFEE7C26C1B
:105330008A4200D20A46E16A914201D0012B00D094
:1053400038BD184B1B68A34222D0E262A369002B30
:1053500002DBC2F13802A261626901EB8101124BEA
:1053600003EB81018A42EBD1251D2846FEF76AFD39
:10537000E06A0E4B1B68984201D90C4B186000EB99
:1053800080002946084B03EB8000FEF737FDD7E786
:105390004FF0500383F31188BFF36F8FBFF34F8F2C
:1053A000FEE77047CC030020D80300204808002007
:1053B000054B1B6823B1044B1A68136D0133136549
:1053C000014B1868704700BFCC030020064B1A68D9
:1053D00013682BB90123036023B9D3681868704799
:1053E0000023F8E700207047CC08002008B5416092
:1053F000006191420CD8D21A83699A4201D30120EC
:1054000008BD011D094B1868FEF703FD0020F7E7F2
:105410009A4201D2994206D2011D054B1868FEF747
:10542000F8FC0020ECE70120EAE700BFD0080020EC
:10543000CC08002030B583B000F0A4FD114B1B68F0
:105440001BB100F0C1FD03B030BD0F4D2846FEF783
:10545000C7FC0E4C2046FEF7C3FC0D4B1D600D4BE8
:105460001C60002300930C4B0C4A10210A20FEF70D
:10547000F7FD044B18600028E3D00949FFF7C6F98F
:10548000DFE700BFF0090020740900208809002030
:10549000CC080020D0080020A0090020D40800205B
:1054A000F08C000810B588B0FFF7C4FF124B1B68E2
:1054B000CBB100240594069407AA06A905A800F01C
:1054C000CBFB059B0293069B01930223009323468B
:1054D000079A0A490A48FFF75FFB0A4B186010B1A8
:1054E000012008B010BD4FF0500383F31188BFF3C3
:1054F0006F8FBFF34F8FFEE7F0090020F88C000894
:1055000009580008F4090020B8B19C460346184821
:10551000006858B300B585B0009101920293052947
:105520001CDCFFF751FE022810D000231A46694602
:105530000F480068FEF702FE15E04FF0500383F3BA
:105540001188BFF36F8FBFF34F8FFEE70023069ADA
:10555000694607480068FEF7F1FD04E00023624653
:105560006946FEF7F5FE05B05DF804FB00207047C4
:10557000F009002070B582B01B4B1B681A6862B33B
:10558000DB681E68DC68251D2846FEF75BFC236A85
:105590002046984794F8283013F0040FECD0A36904
:1055A00033449E4207D26360246129460E4B18683B
:1055B000FEF72FFCE0E7002100910B463246204623
:1055C000FFF7A2FF0028D7D14FF0500383F31188D3
:1055D000BFF36F8FBFF34F8FFEE7044A1068024995
:1055E0000860136002B070BDCC080020D008002015
:1055F00038B50546FFF796FB0446074B1B68834208
:1056000005D800232B60044B1C60204638BDFFF7F3
:10561000B1FF01232B60F6E79C09002070B582B032
:1056200006460D4617490968C968CC68201DFEF773
:1056300009FC94F828C01CF0040F08D12CF0010CD0
:1056400084F828C0236A2046984702B070BDA1693B
:1056500033462A4631442046FFF7C8FE0028F1D0E1
:10566000002100910B4632462046FFF74DFF0028EF
:10567000E8D14FF0500383F31188BFF36F8FBFF36E
:105680004F8FFEE7CC08002070B582B006460C466E
:10569000FFF740FB01A8FFF7ABFF019B33BB0546BB
:1056A0000CB9B04219D224B1124A12681268DAB9A0
:1056B00001242246711B104B1868FFF7BBF8FFF757
:1056C000C3FBA8B94FF0E0234FF08052C3F8042D7C
:1056D000BFF34F8FBFF36F8F0AE0FFF7B5FB29468B
:1056E0003046FFF79BFF03E01C46E2E7FFF7ACFB09
:1056F00002B070BDD0080020F009002010B588B0BD
:1057000002E0049B002B0FDA002204A93D4B18682D
:10571000FEF785FE002873D0049B002BF1DA079971
:105720000698059B9847ECE7069C636913B1201D1A
:10573000FEF788FB03A8FFF75BFF049B092BE3D868
:10574000DFE803F00505053037500505303794F8DC
:10575000283043F0010384F82830059BA1690246F4
:1057600019442046FFF742FE0028CDD0236A204688
:10577000984794F8283013F0040FC5D0A26900218F
:1057800000910B46059802442046FFF7BDFE002815
:10579000BAD14FF0500383F31188BFF36F8FBFF37B
:1057A0004F8FFEE794F8283023F0010384F8283067
:1057B000AAE794F8283043F0010384F828300599CB
:1057C000A16131B10346024601442046FFF70EFEB7
:1057D0009AE74FF0500383F31188BFF36F8FBFF345
:1057E0004F8FFEE794F8283013F0020F04D023F017
:1057F000010384F8283087E7204600F01BFB83E78D
:1058000008B010BDF009002000B583B001A8FFF773
:10581000DDFD0199FFF738FFFFF770FFF6E708B5E8
:105820004FF0E0231B69FFF7CFFC012800D108BD32
:1058300000F018FCFBE70000EFF305832BB9064BE3
:10584000186828B901221A6070476FF00500704788
:105850004FF0FF30704700BF540C0020EFF305837A
:1058600073B90A4B1B68012B0DD110B50024084BEE
:10587000DC77064B02221A60FFF7FEF9204610BDC6
:105880006FF0050070474FF0FF307047540C002058
:1058900000ED00E0F0B587B000240594EFF3058437
:1058A00074BB68B322B31568936903B918235C1EEF
:1058B000372C49D8546814F0010F47D156696EB19E
:1058C0004FEA960C94682CB1D7685B2F02D9176900
:1058D00007B1C6B92CB14FF0FF340EE04FF0800C89
:1058E000F0E7D4688CB9146994B14FF0FF3404E048
:1058F0001546002418234FF0800C012C0AD0ACB1BF
:10590000059807B0F0BD0124F7E74FF0FF34F4E746
:105910000024F2E7146992680292019400930B4606
:1059200062462946FFF738F90590E9E705AA019292
:1059300000930B461FFA8CF22946FFF768F90128FD
:10594000DED000230593DBE70020DAE70020D8E76C
:1059500008B5EFF3058333B908B9002008BDFFF798
:10596000EFFA0020FAE76FF00500F7E770B5EFF304
:105970000583002B3FD1044600B1436813F00106B4
:1059800000D0012613F0080F38D14CB3A16811B133
:10599000E3684F2B19D899B14FF0FF334BBB1EB3BF
:1059A0000420FEF79BFC05462DB104B12468214676
:1059B0002846FEF72BFFFDB1F6B145F001051BE0CF
:1059C000E3687BB14FF0FF33E8E726B10420FEF730
:1059D00090FC0546E8E70120FEF78BFC0546E3E76F
:1059E0000023DBE70023D9E70120FEF777FC05461B
:1059F000DAE70025DFE70025284670BD0025FBE734
:105A0000EFF30582C2B910B503460C4620F0010041
:105A100003F0010398B13BB1FEF783FE012811D0DA
:105A200094B16FF001000EE0FEF7A8FD01280ED042
:105A30007CB16FF0010006E06FF0050070476FF079
:105A4000030000E0002010BD6FF00200FBE7002023
:105A5000F9E76FF00200F6E7EFF30582B2B908B597
:105A6000034620F0010003F0010390B12BB1FEF7D3
:105A70004FFC012810D1002008BD00231A4619460A
:105A8000FEF75CFB01280AD10020F5E76FF0050066
:105A900070476FF00300EFE76FF00200ECE76FF084
:105AA0000200E9E770B582B0EFF30583002B3AD12D
:105AB000144600283BD000293BD06AB393684BB111
:105AC000D2684F2A06D9226922B101FB00F5666926
:105AD000AE421BD273B14FF0FF3363BB0022FEF71F
